:100000000C9446000C9465000C9465000C946500FB
:100010000C9465000C9465000C9465000C946500CC
:100020000C9465000C9465000C9465000C946500BC
:100030000C9465000C94D3000C9465000C9465003E
:100040000C9465000C9465000C9465000C9465009C
:100050000C9465000C9465000C9465000C9465008C
:100060000C9465000C9465000C9465000C9465007C
:100070000C9465000C9465000C9465000C9465006C
:100080000C9465000C9465000C94650011241FBE4F
:10009000CFEFD0E4DEBFCDBF11E0A0E0B1E0E4E2FD
:1000A000F8E000E00BBF02C007900D92A432B10748
:1000B000D9F721E0A4E2B1E001C01D92A434B20757
:1000C000E1F70E9413020C9410040C940000CF93EB
:1000D000DF9300D01F92CDB7DEB789837B836A831D
:1000E00089818A3031F48A819B81BC018DE00E9434
:1000F000670080EC90E0FC018081882F90E08072A6
:100100009927892BB1F386EC90E02981FC012083AB
:1001100080E090E00F900F900F90DF91CF910895C5
:10012000CF93DF93CDB7DEB781E890E02BE0FC0101
:10013000208388E890E02DE730E0FC0131832083C4
:100140008FE690E022E0FC01208384E890E0FC014F
:100150001182108280910E0190910F01A0911001E7
:10016000B09111018093250190932601A09327015E
:10017000B09328018FE590E02FE530E0F901208170
:100180002068FC0120830000DF91CF910895CF9378
:10019000DF93CDB7DEB781E890E0FC01108200006C
:1001A000DF91CF9108951F920F9200905F000F9200
:1001B000112400905B000F922F933F934F935F9316
:1001C0006F937F938F939F93AF93BF93EF93FF931F
:1001D000CF93DF93CDB7DEB78091250190912601B3
:1001E000A0912701B09128010197A109B10980933D
:1001F000250190932601A0932701B09328018091B7
:10020000250190912601A0912701B0912801892B09
:100210008A2B8B2B91F40E94770180910E01909193
:100220000F01A0911001B0911101809325019093CD
:100230002601A0932701B09328010000DF91CF9100
:10024000FF91EF91BF91AF919F918F917F916F91AE
:100250005F914F913F912F910F9000925B000F9013
:1002600000925F000F901F901895CF93DF9300D0FE
:1002700000D0CDB7DEB769837A838B839C83898175
:100280009A81AB81BC8180930E0190930F01A09362
:100290001001B093110180910E0190910F01A09176
:1002A0001001B09111018093250190932601A09334
:1002B0002701B093280100000F900F900F900F902E
:1002C000DF91CF910895CF93DF93CDB7DEB785E26D
:1002D00090E03091290120912A01322B20912B01AD
:1002E000232BFC0120830000DF91CF910895CF9351
:1002F000DF93CDB7DEB781E0809324010000DF916A
:10030000CF910895CF93DF9300D0CDB7DEB79A8316
:10031000898389819A818130910551F082309105DC
:1003200061F0892B69F481E090E09A83898308C0A9
:1003300082E090E09A83898303C01A8219820000C8
:1003400089819A818130910549F08230910551F07F
:10035000892B61F481E08093290108C082E08093B9
:10036000290104C084E080932901000089819A81D9
:100370000F900F90DF91CF910895CF93DF9300D02E
:10038000CDB7DEB79A83898389819A81009719F066
:10039000019731F008C081E090E09A83898303C01F
:1003A0001A821982000089819A81009719F00197B9
:1003B00021F007C010922A0104C088E080932A012E
:1003C000000089819A810F900F90DF91CF9108955D
:1003D000CF93DF9300D0CDB7DEB79A83898389812D
:1003E0009A81009719F0019731F008C081E090E000
:1003F0009A83898303C01A821982000089819A81B5
:10040000009719F0019721F007C010922B0104C04A
:1004100080E180932B01000089819A810F900F90D9
:10042000DF91CF9108950F931F93CF93DF9300D067
:10043000CDB7DEB784E290E02FEFFC01208385E2A8
:1004400090E0FC0110821A828A81282F30E0C901D5
:10045000880F991F820F931F880F991F880F991F6C
:10046000845D9E4FFC01118210828A81682F70E0AA
:1004700028EE33E040E050E0CB01880F991F860F53
:10048000971F880F991F880F991F825D9E4FFC014F
:1004900020833183428353838A81682F70E08A816D
:1004A000282F30E0C901880F991F820F931F880FF2
:1004B000991F880F991F825D9E4FFC012081318119
:1004C00042815381CB01880F991F860F971F880F98
:1004D000991F880F991F8E5C9E4FFC0120833183EA
:1004E000428353838A81282F30E0C901880F991FE6
:1004F000820F931F880F991F880F991F8A5C9E4F48
:100500002DEB31E0FC01318320838A818F5F8A8368
:100510008A81282F30E0C901880F991F820F931F0D
:10052000880F991F880F991F845D9E4F22E030E04D
:10053000FC01318320838A81682F70E02CE231E056
:1005400040E050E0CB01880F991F860F971F880F5E
:10055000991F880F991F825D9E4FFC012083318374
:10056000428353838A81682F70E08A81282F30E08C
:10057000C901880F991F820F931F880F991F880F39
:10058000991F825D9E4FFC01208131814281538100
:10059000CB01880F991F860F971F880F991F880F0F
:1005A000991F8E5C9E4FFC012083318342835383CD
:1005B0008A81282F30E0C901880F991F820F931F6D
:1005C000880F991F880F991F8A5C9E4F22E831E09F
:1005D000FC01318320838A818F5F8A838A81282F5F
:1005E00030E0C901880F991F820F931F880F991F50
:1005F000880F991F845D9E4FFC01118210828A81B1
:10060000682F70E022E030E040E050E0CB01880F3E
:10061000991F860F971F880F991F880F991F825D5A
:100620009E4FFC0120833183428353838A81682F4C
:1006300070E08A81282F30E0C901880F991F820F4E
:10064000931F880F991F880F991F825D9E4FFC0191
:100650002081318142815381CB01880F991F860F00
:10066000971F880F991F880F991F8E5C9E4FFC0162
:1006700020833183428353838A81282F30E0C9014C
:10068000880F991F820F931F880F991F880F991F3A
:100690008A5C9E4F28EE31E0FC013183208381E0AB
:1006A00090E0A0E0B0E0BC01CD010E9435010E94C5
:1006B00090001982A6C08981282F30E0C901880FD7
:1006C000991F820F931F880F991F880F991F8E5CA7
:1006D0009E4FFC0120813181428153818981682FA5
:1006E00070E0CB01880F991F860F971F880F991F05
:1006F000880F991F825D9E4FFC0180819181A281AC
:10070000B381281739074A075B0708F449C0898174
:10071000082F10E08981282F30E0C901880F991F28
:10072000820F931F880F991F880F991F8A5C9E4F15
:10073000FC01408151818981282F30E0C901880F57
:10074000991F820F931F880F991F880F991F845D2F
:100750009E4FFC0180819181FA0109959C01C8019D
:10076000880F991F800F911F880F991F880F991F5D
:10077000845D9E4FFC01318320838981282F30E0E6
:10078000C901880F991F820F931F880F991F880F27
:10079000991F8E5C9E4FFC0110821182128213827F
:1007A0008981682F70E08981282F30E0C901880F86
:1007B000991F820F931F880F991F880F991F8E5CB6
:1007C0009E4FFC0180819181A281B38121E030E0C4
:1007D00040E050E0280F391F4A1F5B1FCB01880FF4
:1007E000991F860F971F880F991F880F991F8E5C7E
:1007F0009E4FFC01208331834283538389818F5F25
:10080000898383E09981981708F455CF0E9463018A
:100810000000809124018823E1F31092240149CF44
:04082000F894FFCF7A
:10082400000000020000000067000000000001005A
:10083400000003E80300002C010000020000000196
:0408440000000000B0
:00000001FF
